:020000040000FA
:04000000FEEFFFF020
:020000040001F9
:10FF480012001200120001EE01F1110EEE6AE8062D
:10FF5800FDE10001D0EFFFF0000ECE6E000ECF6E77
:10FF6800000EC66E300EC76E000E0401006F000E44
:10FF7800086FCE8E1200000E0D6E000E0E6E000E73
:10FF88000F6E000E106E000E096E000E0A6E000E47
:10FF98000B6E000E0C6E1200088EA4ECFFF0BFEC86
:10FFA800FFF0B0ECFFF0A6ECFFF0E1ECFFF0A5EC01
:10FFB800FFF0D9EFFFF0FEEFFFF0CFAAE6EFFFF07A
:10FFC800E8EFFFF0FDEFFFF0010E0126000E022220
:10FFD80003220422BE500118BE6E150E136E4B0E7E
:10FFE800126EBE0EE82EFED7122EFCD7132EFAD7AD
:08FFF80000D01200A7EFFFF09A
:020000040020DA
:10000000FF0FFF0FFF0FFF0FFF0FFF0FFF0FFF0F80
:10001000FF0FFF0FFF0FFF0FFF0FFF0FFF0FFF0F70
:020000040030CA
:0A0000008CFEFFFC9FFFFFFFFFFFD7
:00000001FF
