:020000040000FA
:0400000081EF00F09C
:100008004101290129012901400029014000290154
:100018002901290129012901290129012901290188
:100028002901400040004000290129012901290136
:100038002901290129013A01DB00290129012901A6
:10004800290129012901290140004000290129012C
:100058002901290129014000290129012901290132
:100068002901290129012901290129012901290138
:100078002901290129012901400029012901290112
:100088002901290129012901290129012901290118
:1000980029012901290129014000290140004000C6
:1000A80029012901290129012901290129012901F8
:1000B80029012901290129012901290129012901E8
:1000C80029012901290129012901290129012901D8
:1000D80029012901290129012901290129012901C8
:1000E800400029012901290140004000400040004A
:1000F8002901290129012901FF004AEF01F0808324
:1001080086898C8F9295989B9EA2A5A7AAADB0B31D
:10011800B6B9BCBEC1C4C6C9CBCED0D3D5D7DADC3C
:10012800DEE0E2E4E6E8EAEBEDEEF0F1F3F4F5F612
:10013800F8F9FAFAFBFCFDFDFEFEFEFFFFFFFFFFEC
:10014800FFFFFEFEFEFDFDFCFBFAFAF9F8F6F5F4FA
:10015800F3F1F0EEEDEBEAE8E6E4E2E0DEDCDAD734
:10016800D5D3D0CECBC9C6C4C1BEBCB9B6B3B0AD69
:10017800AAA7A5A29E9B9895928F8C898683807C3E
:10018800797673706D6A6764615D5A5855524F4C41
:10019800494643413E3B393634312F2C2A28252302
:1001A800211F1D1B1917151412110F0E0C0B0A090C
:1001B8000706050504030202010101000000000012
:1001C80000000101010202030405050607090A0BE4
:1001D8000C0E0F1112141517191B1D1F212325288A
:1001E8002A2C2F313436393B3E414346494C4F5235
:1001F80055585A5D6164676A6D707376797C4850AA
:10020800020D600EF324D96E050EF420DA6E455007
:10021800DE1807E14650DE18D8A415EF01F017EFF5
:1002280001F047EF01F04850536E546AD8905336A6
:100238005436030E5324D96E050E5420DA6E61002D
:1002480078F34EF5610074F34FF5010E506E8CECA7
:1002580001F01B0E486033EF01F035EF01F038EF85
:1002680001F0482A43EF01F01B0E4818D8A43FEFCD
:1002780001F041EF01F043EF01F0000E486E000E6F
:10028800466E000E456E454A462A1200060EF66E68
:10029800010EF76E000EF86E01EE00F210EE00F19E
:1002A8000900F5C4EEF4E550E150FAE1E250F8E156
:1002B800DE0EF66E030EF76E000EF86E01EE60F1BC
:1002C80010EE38F00900F5C4EEF4E550E150FAE11B
:1002D800A60EF66E030EF76E000EF86E01EE01F133
:1002E80010EE38F00900F5C4EEF4E550E150FAE1FB
:1002F80001EE39F1140EEE6AE806FDE10401080E7C
:100308005D6F000E5E6F000E5F6F000125EF02F05B
:1003180003011E91800E4F5CD8A095EF01F097EF76
:1003280001F09AEF01F07F0E4F6E4E684E1C516E31
:100338004F1C526E52504A6E51C549F5610028F55E
:100348001DF3610024F51CF34B905050D8B4AFEF67
:1003580001F0B1EF01F0B2EF01F04B80B198A18844
:100368001E811200610028F51DF3610024F51CF3BD
:10037800000E4724D96EDA6A060EDA22DF50000131
:100388007D6F040E4726B1984BB0CDEF01F0CFEF4B
:1003980001F0D2EF01F0A19803011E9111003C0079
:1003A80000003C0000002800000028000000240095
:1003B800000024000000280000002D0000002D008F
:1003C80000002F0000002F0000003500000035005D
:1003D80000003C000000000232000002320000026F
:1003E8003200000232000002320000023200000433
:1003F8003200000232000002320000023200000225
:10040800320000023200000232000004C409000E6B
:10041800416E000E426E000E436E000E446E000EDA
:100428003D6E000E3E6E000E3F6E000E406E7D0E5D
:100438000301236F010E266FB196F00E246FA1867B
:1004480012004C8E84EC02F05FEC02F07DEC02F0BE
:100458000BEC02F03BEC02F04C9E03EC01F0BE9E6C
:100468006AEC02F0BE8E31EF02F081EF00F0C00EB0
:10047800BE16900E03011A6F540E1B6F000E1F6FED
:10048800010E216F310E1E6F000E4F6E100E4E6E54
:0A049800010E506E8CEC01F0120012
:1004A400610060F34DF5010E3926000E3A223B221D
:1004B4003C22610034F5D8F41100000E0401006FF1
:1004C400000EC66EA00E00017F6F000E7D6F12003D
:1004D4004C8C4CBC70EF02F072EF02F06BEF02F048
:0204E400120004
:1004E800B1964C9C010E4126000E42224322442222
:0A04F8001100D68AD68ED68C1200B1
:06050400AE901100120090
:020000040020DA
:10000000FF0FFF0FFF0FFF0FFF0FFF0FFF0FFF0F80
:10001000FF0FFF0FFF0FFF0FFF0FFF0FFF0FFF0F70
:020000040030CA
:0A0000008CFEFFFC9FFFFFFFFFFFD7
:00000001FF
